{
  "contractName": "Voting",
  "abi": [
    {
      "anonymous": false,
      "inputs": [
        {
          "indexed": true,
          "internalType": "address",
          "name": "previousOwner",
          "type": "address"
        },
        {
          "indexed": true,
          "internalType": "address",
          "name": "newOwner",
          "type": "address"
        }
      ],
      "name": "OwnershipTransferred",
      "type": "event"
    },
    {
      "anonymous": false,
      "inputs": [
        {
          "indexed": false,
          "internalType": "uint256",
          "name": "proposalId",
          "type": "uint256"
        }
      ],
      "name": "ProposalRegistered",
      "type": "event"
    },
    {
      "anonymous": false,
      "inputs": [
        {
          "indexed": false,
          "internalType": "address",
          "name": "voter",
          "type": "address"
        },
        {
          "indexed": false,
          "internalType": "uint256",
          "name": "proposalId",
          "type": "uint256"
        }
      ],
      "name": "Voted",
      "type": "event"
    },
    {
      "anonymous": false,
      "inputs": [
        {
          "indexed": false,
          "internalType": "address",
          "name": "voterAddress",
          "type": "address"
        }
      ],
      "name": "VoterRegistered",
      "type": "event"
    },
    {
      "anonymous": false,
      "inputs": [
        {
          "indexed": false,
          "internalType": "enum Voting.WorkflowStatus",
          "name": "previousStatus",
          "type": "uint8"
        },
        {
          "indexed": false,
          "internalType": "enum Voting.WorkflowStatus",
          "name": "newStatus",
          "type": "uint8"
        }
      ],
      "name": "WorkflowStatusChange",
      "type": "event"
    },
    {
      "inputs": [],
      "name": "owner",
      "outputs": [
        {
          "internalType": "address",
          "name": "",
          "type": "address"
        }
      ],
      "stateMutability": "view",
      "type": "function",
      "constant": true
    },
    {
      "inputs": [
        {
          "internalType": "uint256",
          "name": "",
          "type": "uint256"
        }
      ],
      "name": "proposals",
      "outputs": [
        {
          "internalType": "string",
          "name": "description",
          "type": "string"
        },
        {
          "internalType": "uint256",
          "name": "voteCount",
          "type": "uint256"
        }
      ],
      "stateMutability": "view",
      "type": "function",
      "constant": true
    },
    {
      "inputs": [],
      "name": "renounceOwnership",
      "outputs": [],
      "stateMutability": "nonpayable",
      "type": "function"
    },
    {
      "inputs": [],
      "name": "status",
      "outputs": [
        {
          "internalType": "enum Voting.WorkflowStatus",
          "name": "",
          "type": "uint8"
        }
      ],
      "stateMutability": "view",
      "type": "function",
      "constant": true
    },
    {
      "inputs": [
        {
          "internalType": "address",
          "name": "newOwner",
          "type": "address"
        }
      ],
      "name": "transferOwnership",
      "outputs": [],
      "stateMutability": "nonpayable",
      "type": "function"
    },
    {
      "inputs": [
        {
          "internalType": "address",
          "name": "",
          "type": "address"
        }
      ],
      "name": "voters",
      "outputs": [
        {
          "internalType": "bool",
          "name": "isRegistered",
          "type": "bool"
        },
        {
          "internalType": "bool",
          "name": "hasVoted",
          "type": "bool"
        },
        {
          "internalType": "uint256",
          "name": "votedProposalId",
          "type": "uint256"
        }
      ],
      "stateMutability": "view",
      "type": "function",
      "constant": true
    },
    {
      "inputs": [],
      "name": "startRegisteringVoters",
      "outputs": [],
      "stateMutability": "nonpayable",
      "type": "function"
    },
    {
      "inputs": [
        {
          "internalType": "address",
          "name": "_voter",
          "type": "address"
        }
      ],
      "name": "registerVoter",
      "outputs": [],
      "stateMutability": "nonpayable",
      "type": "function"
    },
    {
      "inputs": [],
      "name": "endRegisteringVoters",
      "outputs": [],
      "stateMutability": "nonpayable",
      "type": "function"
    },
    {
      "inputs": [
        {
          "internalType": "string",
          "name": "_description",
          "type": "string"
        }
      ],
      "name": "registerProposal",
      "outputs": [],
      "stateMutability": "nonpayable",
      "type": "function"
    },
    {
      "inputs": [],
      "name": "endProposalsRegistration",
      "outputs": [],
      "stateMutability": "nonpayable",
      "type": "function"
    },
    {
      "inputs": [],
      "name": "startVotingSession",
      "outputs": [],
      "stateMutability": "nonpayable",
      "type": "function"
    },
    {
      "inputs": [
        {
          "internalType": "uint256",
          "name": "_proposalId",
          "type": "uint256"
        }
      ],
      "name": "vote",
      "outputs": [],
      "stateMutability": "nonpayable",
      "type": "function"
    },
    {
      "inputs": [],
      "name": "endVotingSession",
      "outputs": [],
      "stateMutability": "nonpayable",
      "type": "function"
    },
    {
      "inputs": [],
      "name": "tallyVotes",
      "outputs": [],
      "stateMutability": "nonpayable",
      "type": "function"
    },
    {
      "inputs": [],
      "name": "getWinner",
      "outputs": [
        {
          "internalType": "uint256",
          "name": "",
          "type": "uint256"
        }
      ],
      "stateMutability": "view",
      "type": "function",
      "constant": true
    }
  ],
  "bytecode": "0x608060405234801561001057600080fd5b5061002d61002261003260201b60201c565b61003a60201b60201c565b6100fe565b600033905090565b60008060009054906101000a900473ffffffffffffffffffffffffffffffffffffffff169050816000806101000a81548173ffffffffffffffffffffffffffffffffffffffff021916908373ffffffffffffffffffffffffffffffffffffffff1602179055508173ffffffffffffffffffffffffffffffffffffffff168173ffffffffffffffffffffffffffffffffffffffff167f8be0079c531659141344cd1fd0a4f28419497f9722a3daafe3b4186f6b6457e060405160405180910390a35050565b612052806200010e6000396000f3fe608060405234801561001057600080fd5b50600436106101005760003560e01c80638da5cb5b11610097578063a7bfab1611610066578063a7bfab161461023e578063c8e999b814610248578063ee74c67814610252578063f2fde38b1461025c57610100565b80638da5cb5b146101c65780638e7ea5b2146101e45780639f911cd314610202578063a3ec138d1461020c57610100565b8063378a2178116100d3578063378a21781461018c57806338db6dd3146101965780636c297445146101b2578063715018a6146101bc57610100565b80630121b93f14610105578063013cf08b14610121578063200d2ed2146101525780632f95355b14610170575b600080fd5b61011f600480360381019061011a91906113cc565b610278565b005b61013b600480360381019061013691906113cc565b61056f565b604051610149929190611498565b60405180910390f35b61015a61062b565b604051610167919061153f565b60405180910390f35b61018a6004803603810190610185919061168f565b61063e565b005b6101946107f3565b005b6101b060048036038101906101ab9190611736565b61096c565b005b6101ba610b11565b005b6101c4610c4f565b005b6101ce610c63565b6040516101db9190611772565b60405180910390f35b6101ec610c8c565b6040516101f9919061178d565b60405180910390f35b61020a610d56565b005b61022660048036038101906102219190611736565b610e4b565b604051610235939291906117c3565b60405180910390f35b610246610e8f565b005b610250610f85565b005b61025a611077565b005b61027660048036038101906102719190611736565b6111b5565b005b600260003373ffffffffffffffffffffffffffffffffffffffff1673ffffffffffffffffffffffffffffffffffffffff16815260200190815260200160002060000160009054906101000a900460ff16610307576040517f08c379a00000000000000000000000000000000000000000000000000000000081526004016102fe90611846565b60405180910390fd5b600380600581111561031c5761031b6114c8565b5b600060149054906101000a900460ff16600581111561033e5761033d6114c8565b5b1461037e576040517f08c379a0000000000000000000000000000000000000000000000000000000008152600401610375906118b2565b60405180910390fd5b600260003373ffffffffffffffffffffffffffffffffffffffff1673ffffffffffffffffffffffffffffffffffffffff16815260200190815260200160002060000160019054906101000a900460ff161561040e576040517f08c379a00000000000000000000000000000000000000000000000000000000081526004016104059061191e565b60405180910390fd5b6003805490508210610455576040517f08c379a000000000000000000000000000000000000000000000000000000000815260040161044c9061198a565b60405180910390fd5b6001600260003373ffffffffffffffffffffffffffffffffffffffff1673ffffffffffffffffffffffffffffffffffffffff16815260200190815260200160002060000160016101000a81548160ff02191690831515021790555081600260003373ffffffffffffffffffffffffffffffffffffffff1673ffffffffffffffffffffffffffffffffffffffff168152602001908152602001600020600101819055506003828154811061050b5761050a6119aa565b5b9060005260206000209060020201600101600081548092919061052d90611a08565b91905055507f4d99b957a2bc29a30ebd96a7be8e68fe50a3c701db28a91436490b7d53870ca43383604051610563929190611a50565b60405180910390a15050565b6003818154811061057f57600080fd5b90600052602060002090600202016000915090508060000180546105a290611aa8565b80601f01602080910402602001604051908101604052809291908181526020018280546105ce90611aa8565b801561061b5780601f106105f05761010080835404028352916020019161061b565b820191906000526020600020905b8154815290600101906020018083116105fe57829003601f168201915b5050505050908060010154905082565b600060149054906101000a900460ff1681565b600260003373ffffffffffffffffffffffffffffffffffffffff1673ffffffffffffffffffffffffffffffffffffffff16815260200190815260200160002060000160009054906101000a900460ff166106cd576040517f08c379a00000000000000000000000000000000000000000000000000000000081526004016106c490611846565b60405180910390fd5b60018060058111156106e2576106e16114c8565b5b600060149054906101000a900460ff166005811115610704576107036114c8565b5b14610744576040517f08c379a000000000000000000000000000000000000000000000000000000000815260040161073b906118b2565b60405180910390fd5b6003604051806040016040528084815260200160008152509080600181540180825580915050600190039060005260206000209060020201600090919091909150600082015181600001908161079a9190611c85565b506020820151816001015550507f92e393e9b54e2f801d3ea4beb0c5e71a21cc34a5d34b77d0fb8a3aa1650dc18f60016003805490506107da9190611d57565b6040516107e7919061178d565b60405180910390a15050565b6107fb611238565b60048060058111156108105761080f6114c8565b5b600060149054906101000a900460ff166005811115610832576108316114c8565b5b14610872576040517f08c379a0000000000000000000000000000000000000000000000000000000008152600401610869906118b2565b60405180910390fd5b6000805b6003805490508110156108f3578160038281548110610898576108976119aa565b5b90600052602060002090600202016001015411156108e057600381815481106108c4576108c36119aa565b5b9060005260206000209060020201600101549150806001819055505b80806108eb90611a08565b915050610876565b506005600060146101000a81548160ff0219169083600581111561091a576109196114c8565b5b02179055507f0a97a4ee45751e2abf3e4fc8946939630b11b371ea8ae39ccdc3056e98f5cc3f6004600060149054906101000a900460ff16604051610960929190611d8b565b60405180910390a15050565b610974611238565b6000806005811115610989576109886114c8565b5b600060149054906101000a900460ff1660058111156109ab576109aa6114c8565b5b146109eb576040517f08c379a00000000000000000000000000000000000000000000000000000000081526004016109e2906118b2565b60405180910390fd5b600260008373ffffffffffffffffffffffffffffffffffffffff1673ffffffffffffffffffffffffffffffffffffffff16815260200190815260200160002060000160009054906101000a900460ff1615610a7b576040517f08c379a0000000000000000000000000000000000000000000000000000000008152600401610a7290611e00565b60405180910390fd5b6001600260008473ffffffffffffffffffffffffffffffffffffffff1673ffffffffffffffffffffffffffffffffffffffff16815260200190815260200160002060000160006101000a81548160ff0219169083151502179055507fb6be2187d059cc2a55fe29e0e503b566e1e0f8c8780096e185429350acffd3dd82604051610b059190611772565b60405180910390a15050565b610b19611238565b6002806005811115610b2e57610b2d6114c8565b5b600060149054906101000a900460ff166005811115610b5057610b4f6114c8565b5b14610b90576040517f08c379a0000000000000000000000000000000000000000000000000000000008152600401610b87906118b2565b60405180910390fd5b600060038054905011610bd8576040517f08c379a0000000000000000000000000000000000000000000000000000000008152600401610bcf90611e6c565b60405180910390fd5b6003600060146101000a81548160ff02191690836005811115610bfe57610bfd6114c8565b5b02179055507f0a97a4ee45751e2abf3e4fc8946939630b11b371ea8ae39ccdc3056e98f5cc3f6002600060149054906101000a900460ff16604051610c44929190611d8b565b60405180910390a150565b610c57611238565b610c6160006112b6565b565b60008060009054906101000a900473ffffffffffffffffffffffffffffffffffffffff16905090565b60006005806005811115610ca357610ca26114c8565b5b600060149054906101000a900460ff166005811115610cc557610cc46114c8565b5b14610d05576040517f08c379a0000000000000000000000000000000000000000000000000000000008152600401610cfc906118b2565b60405180910390fd5b600060038054905011610d4d576040517f08c379a0000000000000000000000000000000000000000000000000000000008152600401610d4490611e6c565b60405180910390fd5b60015491505090565b610d5e611238565b6000806005811115610d7357610d726114c8565b5b600060149054906101000a900460ff166005811115610d9557610d946114c8565b5b14610dd5576040517f08c379a0000000000000000000000000000000000000000000000000000000008152600401610dcc906118b2565b60405180910390fd5b6001600060146101000a81548160ff02191690836005811115610dfb57610dfa6114c8565b5b02179055507f0a97a4ee45751e2abf3e4fc8946939630b11b371ea8ae39ccdc3056e98f5cc3f60008060149054906101000a900460ff16604051610e40929190611d8b565b60405180910390a150565b60026020528060005260406000206000915090508060000160009054906101000a900460ff16908060000160019054906101000a900460ff16908060010154905083565b610e97611238565b6003806005811115610eac57610eab6114c8565b5b600060149054906101000a900460ff166005811115610ece57610ecd6114c8565b5b14610f0e576040517f08c379a0000000000000000000000000000000000000000000000000000000008152600401610f05906118b2565b60405180910390fd5b6004600060146101000a81548160ff02191690836005811115610f3457610f336114c8565b5b02179055507f0a97a4ee45751e2abf3e4fc8946939630b11b371ea8ae39ccdc3056e98f5cc3f6003600060149054906101000a900460ff16604051610f7a929190611d8b565b60405180910390a150565b610f8d611238565b600580811115610fa057610f9f6114c8565b5b600060149054906101000a900460ff166005811115610fc257610fc16114c8565b5b14611002576040517f08c379a0000000000000000000000000000000000000000000000000000000008152600401610ff990611efe565b60405180910390fd5b60008060146101000a81548160ff02191690836005811115611027576110266114c8565b5b02179055507f0a97a4ee45751e2abf3e4fc8946939630b11b371ea8ae39ccdc3056e98f5cc3f6005600060149054906101000a900460ff1660405161106d929190611d8b565b60405180910390a1565b61107f611238565b6003806005811115611094576110936114c8565b5b600060149054906101000a900460ff1660058111156110b6576110b56114c8565b5b146110f6576040517f08c379a00000000000000000000000000000000000000000000000000000000081526004016110ed906118b2565b60405180910390fd5b60006003805490501161113e576040517f08c379a000000000000000000000000000000000000000000000000000000000815260040161113590611e6c565b60405180910390fd5b6004600060146101000a81548160ff02191690836005811115611164576111636114c8565b5b02179055507f0a97a4ee45751e2abf3e4fc8946939630b11b371ea8ae39ccdc3056e98f5cc3f6003600060149054906101000a900460ff166040516111aa929190611d8b565b60405180910390a150565b6111bd611238565b600073ffffffffffffffffffffffffffffffffffffffff168173ffffffffffffffffffffffffffffffffffffffff160361122c576040517f08c379a000000000000000000000000000000000000000000000000000000000815260040161122390611f90565b60405180910390fd5b611235816112b6565b50565b61124061137a565b73ffffffffffffffffffffffffffffffffffffffff1661125e610c63565b73ffffffffffffffffffffffffffffffffffffffff16146112b4576040517f08c379a00000000000000000000000000000000000000000000000000000000081526004016112ab90611ffc565b60405180910390fd5b565b60008060009054906101000a900473ffffffffffffffffffffffffffffffffffffffff169050816000806101000a81548173ffffffffffffffffffffffffffffffffffffffff021916908373ffffffffffffffffffffffffffffffffffffffff1602179055508173ffffffffffffffffffffffffffffffffffffffff168173ffffffffffffffffffffffffffffffffffffffff167f8be0079c531659141344cd1fd0a4f28419497f9722a3daafe3b4186f6b6457e060405160405180910390a35050565b600033905090565b6000604051905090565b600080fd5b600080fd5b6000819050919050565b6113a981611396565b81146113b457600080fd5b50565b6000813590506113c6816113a0565b92915050565b6000602082840312156113e2576113e161138c565b5b60006113f0848285016113b7565b91505092915050565b600081519050919050565b600082825260208201905092915050565b60005b83811015611433578082015181840152602081019050611418565b60008484015250505050565b6000601f19601f8301169050919050565b600061145b826113f9565b6114658185611404565b9350611475818560208601611415565b61147e8161143f565b840191505092915050565b61149281611396565b82525050565b600060408201905081810360008301526114b28185611450565b90506114c16020830184611489565b9392505050565b7f4e487b7100000000000000000000000000000000000000000000000000000000600052602160045260246000fd5b60068110611508576115076114c8565b5b50565b6000819050611519826114f7565b919050565b60006115298261150b565b9050919050565b6115398161151e565b82525050565b60006020820190506115546000830184611530565b92915050565b600080fd5b600080fd5b7f4e487b7100000000000000000000000000000000000000000000000000000000600052604160045260246000fd5b61159c8261143f565b810181811067ffffffffffffffff821117156115bb576115ba611564565b5b80604052505050565b60006115ce611382565b90506115da8282611593565b919050565b600067ffffffffffffffff8211156115fa576115f9611564565b5b6116038261143f565b9050602081019050919050565b82818337600083830152505050565b600061163261162d846115df565b6115c4565b90508281526020810184848401111561164e5761164d61155f565b5b611659848285611610565b509392505050565b600082601f8301126116765761167561155a565b5b813561168684826020860161161f565b91505092915050565b6000602082840312156116a5576116a461138c565b5b600082013567ffffffffffffffff8111156116c3576116c2611391565b5b6116cf84828501611661565b91505092915050565b600073ffffffffffffffffffffffffffffffffffffffff82169050919050565b6000611703826116d8565b9050919050565b611713816116f8565b811461171e57600080fd5b50565b6000813590506117308161170a565b92915050565b60006020828403121561174c5761174b61138c565b5b600061175a84828501611721565b91505092915050565b61176c816116f8565b82525050565b60006020820190506117876000830184611763565b92915050565b60006020820190506117a26000830184611489565b92915050565b60008115159050919050565b6117bd816117a8565b82525050565b60006060820190506117d860008301866117b4565b6117e560208301856117b4565b6117f26040830184611489565b949350505050565b7f596f7520617265206e6f74205265676973746572656400000000000000000000600082015250565b6000611830601683611404565b915061183b826117fa565b602082019050919050565b6000602082019050818103600083015261185f81611823565b9050919050565b7f496e76616c696420776f726b666c6f77207374617475732e0000000000000000600082015250565b600061189c601883611404565b91506118a782611866565b602082019050919050565b600060208201905081810360008301526118cb8161188f565b9050919050565b7f596f75206861766520616c726561647920766f7465642e000000000000000000600082015250565b6000611908601783611404565b9150611913826118d2565b602082019050919050565b60006020820190508181036000830152611937816118fb565b9050919050565b7f496e76616c69642070726f706f73616c2049442e000000000000000000000000600082015250565b6000611974601483611404565b915061197f8261193e565b602082019050919050565b600060208201905081810360008301526119a381611967565b9050919050565b7f4e487b7100000000000000000000000000000000000000000000000000000000600052603260045260246000fd5b7f4e487b7100000000000000000000000000000000000000000000000000000000600052601160045260246000fd5b6000611a1382611396565b91507fffffffffffffffffffffffffffffffffffffffffffffffffffffffffffffffff8203611a4557611a446119d9565b5b600182019050919050565b6000604082019050611a656000830185611763565b611a726020830184611489565b9392505050565b7f4e487b7100000000000000000000000000000000000000000000000000000000600052602260045260246000fd5b60006002820490506001821680611ac057607f821691505b602082108103611ad357611ad2611a79565b5b50919050565b60008190508160005260206000209050919050565b60006020601f8301049050919050565b600082821b905092915050565b600060088302611b3b7fffffffffffffffffffffffffffffffffffffffffffffffffffffffffffffffff82611afe565b611b458683611afe565b95508019841693508086168417925050509392505050565b6000819050919050565b6000611b82611b7d611b7884611396565b611b5d565b611396565b9050919050565b6000819050919050565b611b9c83611b67565b611bb0611ba882611b89565b848454611b0b565b825550505050565b600090565b611bc5611bb8565b611bd0818484611b93565b505050565b5b81811015611bf457611be9600082611bbd565b600181019050611bd6565b5050565b601f821115611c3957611c0a81611ad9565b611c1384611aee565b81016020851015611c22578190505b611c36611c2e85611aee565b830182611bd5565b50505b505050565b600082821c905092915050565b6000611c5c60001984600802611c3e565b1980831691505092915050565b6000611c758383611c4b565b9150826002028217905092915050565b611c8e826113f9565b67ffffffffffffffff811115611ca757611ca6611564565b5b611cb18254611aa8565b611cbc828285611bf8565b600060209050601f831160018114611cef5760008415611cdd578287015190505b611ce78582611c69565b865550611d4f565b601f198416611cfd86611ad9565b60005b82811015611d2557848901518255600182019150602085019450602081019050611d00565b86831015611d425784890151611d3e601f891682611c4b565b8355505b6001600288020188555050505b505050505050565b6000611d6282611396565b9150611d6d83611396565b9250828203905081811115611d8557611d846119d9565b5b92915050565b6000604082019050611da06000830185611530565b611dad6020830184611530565b9392505050565b7f566f74657220697320616c726561647920726567697374657265642e00000000600082015250565b6000611dea601c83611404565b9150611df582611db4565b602082019050919050565b60006020820190508181036000830152611e1981611ddd565b9050919050565b7f4e6f2070726f706f73616c2077617320726567697374657265642e0000000000600082015250565b6000611e56601b83611404565b9150611e6182611e20565b602082019050919050565b60006020820190508181036000830152611e8581611e49565b9050919050565b7f566f74696e672073657373696f6e20686173206e6f7420656e6465642079657460008201527f2e00000000000000000000000000000000000000000000000000000000000000602082015250565b6000611ee8602183611404565b9150611ef382611e8c565b604082019050919050565b60006020820190508181036000830152611f1781611edb565b9050919050565b7f4f776e61626c653a206e6577206f776e657220697320746865207a65726f206160008201527f6464726573730000000000000000000000000000000000000000000000000000602082015250565b6000611f7a602683611404565b9150611f8582611f1e565b604082019050919050565b60006020820190508181036000830152611fa981611f6d565b9050919050565b7f4f776e61626c653a2063616c6c6572206973206e6f7420746865206f776e6572600082015250565b6000611fe6602083611404565b9150611ff182611fb0565b602082019050919050565b6000602082019050818103600083015261201581611fd9565b905091905056fea2646970667358221220acbdc2ea919861095881a8eed8afe7cfd97effcff4c0971179bc98a8fd8dcea264736f6c63430008120033",
  "immutableReferences": {},
  "source": "pragma solidity 0.8.18;\r\nimport \"@openzeppelin/contracts/access/Ownable.sol\";\r\ncontract Voting is Ownable {\r\n    enum WorkflowStatus {\r\n        RegisteringVoters,\r\n        ProposalsRegistrationStarted,\r\n        ProposalsRegistrationEnded,\r\n        VotingSessionStarted,\r\n        VotingSessionEnded,\r\n        VotesTallied\r\n    }\r\n    struct Voter {\r\n        bool isRegistered;\r\n        bool hasVoted;\r\n        uint votedProposalId;\r\n    }\r\n    struct Proposal {\r\n        string description;\r\n        uint voteCount;\r\n    }\r\n    WorkflowStatus public status;\r\n    uint winningProposalId;\r\n    mapping(address => Voter) public voters;\r\n    Proposal[] public proposals;\r\n\r\n    modifier onlyRegisteredVoter() {\r\n        require(voters[msg.sender].isRegistered, \"You are not Registered\");\r\n        _;\r\n    }\r\n    modifier onlyDuringStatus(WorkflowStatus _status){\r\n        require(status == _status,  \"Invalid workflow status.\");\r\n        _;\r\n    }\r\n    function startRegisteringVoters() public onlyOwner {\r\n        require(status == WorkflowStatus.VotesTallied, \"Voting session has not ended yet.\");\r\n        status = WorkflowStatus.RegisteringVoters;\r\n        emit WorkflowStatusChange(WorkflowStatus.VotesTallied, status);\r\n    }\r\n\r\n    function registerVoter(address _voter) public onlyOwner onlyDuringStatus(WorkflowStatus.RegisteringVoters) {\r\n        require(!voters[_voter].isRegistered, \"Voter is already registered.\");\r\n        voters[_voter].isRegistered = true;\r\n        emit VoterRegistered(_voter);\r\n    }\r\n\r\n    function endRegisteringVoters() public onlyOwner onlyDuringStatus(WorkflowStatus.RegisteringVoters) {\r\n        status = WorkflowStatus.ProposalsRegistrationStarted;\r\n        emit WorkflowStatusChange(WorkflowStatus.RegisteringVoters, status);\r\n    }\r\n    function registerProposal(string memory _description) public onlyRegisteredVoter onlyDuringStatus(WorkflowStatus.ProposalsRegistrationStarted) {\r\n        proposals.push(Proposal({description: _description, voteCount: 0}));\r\n        emit ProposalRegistered(proposals.length - 1);\r\n    }\r\n\r\n    function endProposalsRegistration() public onlyOwner onlyDuringStatus(WorkflowStatus.ProposalsRegistrationEnded) {\r\n        require(proposals.length > 0, \"No proposal was registered.\");\r\n        status = WorkflowStatus.VotingSessionStarted;\r\n        emit WorkflowStatusChange(WorkflowStatus.ProposalsRegistrationEnded, status);\r\n    }\r\n\r\n    function startVotingSession() public onlyOwner onlyDuringStatus(WorkflowStatus.VotingSessionStarted) {\r\n        require(proposals.length > 0, \"No proposal was registered.\");\r\n        status = WorkflowStatus.VotingSessionEnded;\r\n        emit WorkflowStatusChange(WorkflowStatus.VotingSessionStarted, status);\r\n    }\r\n\r\n    function vote(uint _proposalId) public onlyRegisteredVoter onlyDuringStatus(WorkflowStatus.VotingSessionStarted) {\r\n        require(!voters[msg.sender].hasVoted, \"You have already voted.\");\r\n        require(_proposalId < proposals.length, \"Invalid proposal ID.\");\r\n        voters[msg.sender].hasVoted = true;\r\n        voters[msg.sender].votedProposalId = _proposalId;\r\n        proposals[_proposalId].voteCount++;\r\n        emit Voted(msg.sender, _proposalId);\r\n    }\r\n\r\n    function endVotingSession() public onlyOwner onlyDuringStatus(WorkflowStatus.VotingSessionStarted) {\r\n        status = WorkflowStatus.VotingSessionEnded;\r\n        emit WorkflowStatusChange(WorkflowStatus.VotingSessionStarted, status);\r\n    }\r\n\r\n    function tallyVotes() public onlyOwner onlyDuringStatus(WorkflowStatus.VotingSessionEnded) {\r\n        uint winningVoteCount = 0;\r\n        for (uint i = 0; i < proposals.length; i++) {\r\n            if (proposals[i].voteCount > winningVoteCount) {\r\n                winningVoteCount = proposals[i].voteCount;\r\n                winningProposalId = i;\r\n            }\r\n        }\r\n        status = WorkflowStatus.VotesTallied;\r\n        emit WorkflowStatusChange(WorkflowStatus.VotingSessionEnded, status);\r\n    }\r\n\r\n    function getWinner() public view onlyDuringStatus(WorkflowStatus.VotesTallied) returns (uint) {\r\n        require(proposals.length > 0, \"No proposal was registered.\");\r\n        return winningProposalId;\r\n    }\r\n    event VoterRegistered(address voterAddress);\r\n    event WorkflowStatusChange(WorkflowStatus previousStatus, WorkflowStatus newStatus);\r\n    event ProposalRegistered(uint proposalId);\r\n    event Voted (address voter, uint proposalId);\r\n}",
  "sourcePath": "C:\\Users\\HP\\Documents\\COURS IMT\\NFT blochain et tout l\\projet\\IMT_crypto\\app\\truffle\\contracts\\Voting.sol",
  "compiler": {
    "name": "solc",
    "version": "0.8.18+commit.87f61d96.Emscripten.clang"
  },
  "schemaVersion": "3.4.13",
  "updatedAt": "2023-05-05T07:57:11.222Z",
  "networkType": "ethereum",
  "devdoc": {
    "kind": "dev",
    "methods": {
      "owner()": {
        "details": "Returns the address of the current owner."
      },
      "renounceOwnership()": {
        "details": "Leaves the contract without owner. It will not be possible to call `onlyOwner` functions anymore. Can only be called by the current owner. NOTE: Renouncing ownership will leave the contract without an owner, thereby removing any functionality that is only available to the owner."
      },
      "transferOwnership(address)": {
        "details": "Transfers ownership of the contract to a new account (`newOwner`). Can only be called by the current owner."
      }
    },
    "version": 1
  },
  "userdoc": {
    "kind": "user",
    "methods": {},
    "version": 1
  }
}