{
  "contractName": "Voting",
  "abi": [
    {
      "inputs": [
        {
          "internalType": "uint256",
          "name": "_networkId",
          "type": "uint256"
        }
      ],
      "stateMutability": "nonpayable",
      "type": "constructor"
    },
    {
      "anonymous": false,
      "inputs": [
        {
          "indexed": true,
          "internalType": "address",
          "name": "previousOwner",
          "type": "address"
        },
        {
          "indexed": true,
          "internalType": "address",
          "name": "newOwner",
          "type": "address"
        }
      ],
      "name": "OwnershipTransferred",
      "type": "event"
    },
    {
      "anonymous": false,
      "inputs": [
        {
          "indexed": false,
          "internalType": "uint256",
          "name": "proposalId",
          "type": "uint256"
        }
      ],
      "name": "ProposalRegistered",
      "type": "event"
    },
    {
      "anonymous": false,
      "inputs": [
        {
          "indexed": false,
          "internalType": "address",
          "name": "voter",
          "type": "address"
        },
        {
          "indexed": false,
          "internalType": "uint256",
          "name": "proposalId",
          "type": "uint256"
        }
      ],
      "name": "Voted",
      "type": "event"
    },
    {
      "anonymous": false,
      "inputs": [
        {
          "indexed": false,
          "internalType": "address",
          "name": "voterAddress",
          "type": "address"
        }
      ],
      "name": "VoterRegistered",
      "type": "event"
    },
    {
      "anonymous": false,
      "inputs": [
        {
          "indexed": false,
          "internalType": "enum Voting.WorkflowStatus",
          "name": "previousStatus",
          "type": "uint8"
        },
        {
          "indexed": false,
          "internalType": "enum Voting.WorkflowStatus",
          "name": "newStatus",
          "type": "uint8"
        }
      ],
      "name": "WorkflowStatusChange",
      "type": "event"
    },
    {
      "inputs": [],
      "name": "networkId",
      "outputs": [
        {
          "internalType": "uint256",
          "name": "",
          "type": "uint256"
        }
      ],
      "stateMutability": "view",
      "type": "function",
      "constant": true
    },
    {
      "inputs": [],
      "name": "owner",
      "outputs": [
        {
          "internalType": "address",
          "name": "",
          "type": "address"
        }
      ],
      "stateMutability": "view",
      "type": "function",
      "constant": true
    },
    {
      "inputs": [
        {
          "internalType": "uint256",
          "name": "",
          "type": "uint256"
        }
      ],
      "name": "proposals",
      "outputs": [
        {
          "internalType": "string",
          "name": "description",
          "type": "string"
        },
        {
          "internalType": "uint256",
          "name": "voteCount",
          "type": "uint256"
        }
      ],
      "stateMutability": "view",
      "type": "function",
      "constant": true
    },
    {
      "inputs": [],
      "name": "renounceOwnership",
      "outputs": [],
      "stateMutability": "nonpayable",
      "type": "function"
    },
    {
      "inputs": [],
      "name": "status",
      "outputs": [
        {
          "internalType": "enum Voting.WorkflowStatus",
          "name": "",
          "type": "uint8"
        }
      ],
      "stateMutability": "view",
      "type": "function",
      "constant": true
    },
    {
      "inputs": [
        {
          "internalType": "address",
          "name": "newOwner",
          "type": "address"
        }
      ],
      "name": "transferOwnership",
      "outputs": [],
      "stateMutability": "nonpayable",
      "type": "function"
    },
    {
      "inputs": [
        {
          "internalType": "address",
          "name": "",
          "type": "address"
        }
      ],
      "name": "voters",
      "outputs": [
        {
          "internalType": "bool",
          "name": "isRegistered",
          "type": "bool"
        },
        {
          "internalType": "bool",
          "name": "hasVoted",
          "type": "bool"
        },
        {
          "internalType": "uint256",
          "name": "votedProposalId",
          "type": "uint256"
        }
      ],
      "stateMutability": "view",
      "type": "function",
      "constant": true
    },
    {
      "inputs": [],
      "name": "startRegisteringVoters",
      "outputs": [],
      "stateMutability": "nonpayable",
      "type": "function"
    },
    {
      "inputs": [
        {
          "internalType": "address",
          "name": "_voter",
          "type": "address"
        }
      ],
      "name": "registerVoter",
      "outputs": [],
      "stateMutability": "nonpayable",
      "type": "function"
    },
    {
      "inputs": [],
      "name": "endRegisteringVoters",
      "outputs": [],
      "stateMutability": "nonpayable",
      "type": "function"
    },
    {
      "inputs": [
        {
          "internalType": "string",
          "name": "_description",
          "type": "string"
        }
      ],
      "name": "registerProposal",
      "outputs": [],
      "stateMutability": "nonpayable",
      "type": "function"
    },
    {
      "inputs": [],
      "name": "endProposalsRegistration",
      "outputs": [],
      "stateMutability": "nonpayable",
      "type": "function"
    },
    {
      "inputs": [],
      "name": "startVotingSession",
      "outputs": [],
      "stateMutability": "nonpayable",
      "type": "function"
    },
    {
      "inputs": [
        {
          "internalType": "uint256",
          "name": "_proposalId",
          "type": "uint256"
        }
      ],
      "name": "vote",
      "outputs": [],
      "stateMutability": "nonpayable",
      "type": "function"
    },
    {
      "inputs": [],
      "name": "endVotingSession",
      "outputs": [],
      "stateMutability": "nonpayable",
      "type": "function"
    },
    {
      "inputs": [],
      "name": "tallyVotes",
      "outputs": [],
      "stateMutability": "nonpayable",
      "type": "function"
    },
    {
      "inputs": [],
      "name": "getWinner",
      "outputs": [
        {
          "internalType": "uint256",
          "name": "",
          "type": "uint256"
        }
      ],
      "stateMutability": "view",
      "type": "function",
      "constant": true
    }
  ],
  "bytecode": "0x60806040523480156200001157600080fd5b506040516200223438038062002234833981810160405281019062000037919062000171565b620000576200004b6200006560201b60201c565b6200006d60201b60201c565b8060048190555050620001a3565b600033905090565b60008060009054906101000a900473ffffffffffffffffffffffffffffffffffffffff169050816000806101000a81548173ffffffffffffffffffffffffffffffffffffffff021916908373ffffffffffffffffffffffffffffffffffffffff1602179055508173ffffffffffffffffffffffffffffffffffffffff168173ffffffffffffffffffffffffffffffffffffffff167f8be0079c531659141344cd1fd0a4f28419497f9722a3daafe3b4186f6b6457e060405160405180910390a35050565b600080fd5b6000819050919050565b6200014b8162000136565b81146200015757600080fd5b50565b6000815190506200016b8162000140565b92915050565b6000602082840312156200018a576200018962000131565b5b60006200019a848285016200015a565b91505092915050565b61208180620001b36000396000f3fe608060405234801561001057600080fd5b506004361061010b5760003560e01c80638da5cb5b116100a2578063a3ec138d11610071578063a3ec138d14610235578063a7bfab1614610267578063c8e999b814610271578063ee74c6781461027b578063f2fde38b146102855761010b565b80638da5cb5b146101d15780638e7ea5b2146101ef5780639025e64c1461020d5780639f911cd31461022b5761010b565b8063378a2178116100de578063378a21781461019757806338db6dd3146101a15780636c297445146101bd578063715018a6146101c75761010b565b80630121b93f14610110578063013cf08b1461012c578063200d2ed21461015d5780632f95355b1461017b575b600080fd5b61012a600480360381019061012591906113fb565b6102a1565b005b610146600480360381019061014191906113fb565b610598565b6040516101549291906114c7565b60405180910390f35b610165610654565b604051610172919061156e565b60405180910390f35b610195600480360381019061019091906116be565b610667565b005b61019f61081c565b005b6101bb60048036038101906101b69190611765565b610995565b005b6101c5610b3a565b005b6101cf610c78565b005b6101d9610c8c565b6040516101e691906117a1565b60405180910390f35b6101f7610cb5565b60405161020491906117bc565b60405180910390f35b610215610d7f565b60405161022291906117bc565b60405180910390f35b610233610d85565b005b61024f600480360381019061024a9190611765565b610e7a565b60405161025e939291906117f2565b60405180910390f35b61026f610ebe565b005b610279610fb4565b005b6102836110a6565b005b61029f600480360381019061029a9190611765565b6111e4565b005b600260003373ffffffffffffffffffffffffffffffffffffffff1673ffffffffffffffffffffffffffffffffffffffff16815260200190815260200160002060000160009054906101000a900460ff16610330576040517f08c379a000000000000000000000000000000000000000000000000000000000815260040161032790611875565b60405180910390fd5b6003806005811115610345576103446114f7565b5b600060149054906101000a900460ff166005811115610367576103666114f7565b5b146103a7576040517f08c379a000000000000000000000000000000000000000000000000000000000815260040161039e906118e1565b60405180910390fd5b600260003373ffffffffffffffffffffffffffffffffffffffff1673ffffffffffffffffffffffffffffffffffffffff16815260200190815260200160002060000160019054906101000a900460ff1615610437576040517f08c379a000000000000000000000000000000000000000000000000000000000815260040161042e9061194d565b60405180910390fd5b600380549050821061047e576040517f08c379a0000000000000000000000000000000000000000000000000000000008152600401610475906119b9565b60405180910390fd5b6001600260003373ffffffffffffffffffffffffffffffffffffffff1673ffffffffffffffffffffffffffffffffffffffff16815260200190815260200160002060000160016101000a81548160ff02191690831515021790555081600260003373ffffffffffffffffffffffffffffffffffffffff1673ffffffffffffffffffffffffffffffffffffffff1681526020019081526020016000206001018190555060038281548110610534576105336119d9565b5b9060005260206000209060020201600101600081548092919061055690611a37565b91905055507f4d99b957a2bc29a30ebd96a7be8e68fe50a3c701db28a91436490b7d53870ca4338360405161058c929190611a7f565b60405180910390a15050565b600381815481106105a857600080fd5b90600052602060002090600202016000915090508060000180546105cb90611ad7565b80601f01602080910402602001604051908101604052809291908181526020018280546105f790611ad7565b80156106445780601f1061061957610100808354040283529160200191610644565b820191906000526020600020905b81548152906001019060200180831161062757829003601f168201915b5050505050908060010154905082565b600060149054906101000a900460ff1681565b600260003373ffffffffffffffffffffffffffffffffffffffff1673ffffffffffffffffffffffffffffffffffffffff16815260200190815260200160002060000160009054906101000a900460ff166106f6576040517f08c379a00000000000000000000000000000000000000000000000000000000081526004016106ed90611875565b60405180910390fd5b600180600581111561070b5761070a6114f7565b5b600060149054906101000a900460ff16600581111561072d5761072c6114f7565b5b1461076d576040517f08c379a0000000000000000000000000000000000000000000000000000000008152600401610764906118e1565b60405180910390fd5b600360405180604001604052808481526020016000815250908060018154018082558091505060019003906000526020600020906002020160009091909190915060008201518160000190816107c39190611cb4565b506020820151816001015550507f92e393e9b54e2f801d3ea4beb0c5e71a21cc34a5d34b77d0fb8a3aa1650dc18f60016003805490506108039190611d86565b60405161081091906117bc565b60405180910390a15050565b610824611267565b6004806005811115610839576108386114f7565b5b600060149054906101000a900460ff16600581111561085b5761085a6114f7565b5b1461089b576040517f08c379a0000000000000000000000000000000000000000000000000000000008152600401610892906118e1565b60405180910390fd5b6000805b60038054905081101561091c5781600382815481106108c1576108c06119d9565b5b906000526020600020906002020160010154111561090957600381815481106108ed576108ec6119d9565b5b9060005260206000209060020201600101549150806001819055505b808061091490611a37565b91505061089f565b506005600060146101000a81548160ff02191690836005811115610943576109426114f7565b5b02179055507f0a97a4ee45751e2abf3e4fc8946939630b11b371ea8ae39ccdc3056e98f5cc3f6004600060149054906101000a900460ff16604051610989929190611dba565b60405180910390a15050565b61099d611267565b60008060058111156109b2576109b16114f7565b5b600060149054906101000a900460ff1660058111156109d4576109d36114f7565b5b14610a14576040517f08c379a0000000000000000000000000000000000000000000000000000000008152600401610a0b906118e1565b60405180910390fd5b600260008373ffffffffffffffffffffffffffffffffffffffff1673ffffffffffffffffffffffffffffffffffffffff16815260200190815260200160002060000160009054906101000a900460ff1615610aa4576040517f08c379a0000000000000000000000000000000000000000000000000000000008152600401610a9b90611e2f565b60405180910390fd5b6001600260008473ffffffffffffffffffffffffffffffffffffffff1673ffffffffffffffffffffffffffffffffffffffff16815260200190815260200160002060000160006101000a81548160ff0219169083151502179055507fb6be2187d059cc2a55fe29e0e503b566e1e0f8c8780096e185429350acffd3dd82604051610b2e91906117a1565b60405180910390a15050565b610b42611267565b6002806005811115610b5757610b566114f7565b5b600060149054906101000a900460ff166005811115610b7957610b786114f7565b5b14610bb9576040517f08c379a0000000000000000000000000000000000000000000000000000000008152600401610bb0906118e1565b60405180910390fd5b600060038054905011610c01576040517f08c379a0000000000000000000000000000000000000000000000000000000008152600401610bf890611e9b565b60405180910390fd5b6003600060146101000a81548160ff02191690836005811115610c2757610c266114f7565b5b02179055507f0a97a4ee45751e2abf3e4fc8946939630b11b371ea8ae39ccdc3056e98f5cc3f6002600060149054906101000a900460ff16604051610c6d929190611dba565b60405180910390a150565b610c80611267565b610c8a60006112e5565b565b60008060009054906101000a900473ffffffffffffffffffffffffffffffffffffffff16905090565b60006005806005811115610ccc57610ccb6114f7565b5b600060149054906101000a900460ff166005811115610cee57610ced6114f7565b5b14610d2e576040517f08c379a0000000000000000000000000000000000000000000000000000000008152600401610d25906118e1565b60405180910390fd5b600060038054905011610d76576040517f08c379a0000000000000000000000000000000000000000000000000000000008152600401610d6d90611e9b565b60405180910390fd5b60015491505090565b60045481565b610d8d611267565b6000806005811115610da257610da16114f7565b5b600060149054906101000a900460ff166005811115610dc457610dc36114f7565b5b14610e04576040517f08c379a0000000000000000000000000000000000000000000000000000000008152600401610dfb906118e1565b60405180910390fd5b6001600060146101000a81548160ff02191690836005811115610e2a57610e296114f7565b5b02179055507f0a97a4ee45751e2abf3e4fc8946939630b11b371ea8ae39ccdc3056e98f5cc3f60008060149054906101000a900460ff16604051610e6f929190611dba565b60405180910390a150565b60026020528060005260406000206000915090508060000160009054906101000a900460ff16908060000160019054906101000a900460ff16908060010154905083565b610ec6611267565b6003806005811115610edb57610eda6114f7565b5b600060149054906101000a900460ff166005811115610efd57610efc6114f7565b5b14610f3d576040517f08c379a0000000000000000000000000000000000000000000000000000000008152600401610f34906118e1565b60405180910390fd5b6004600060146101000a81548160ff02191690836005811115610f6357610f626114f7565b5b02179055507f0a97a4ee45751e2abf3e4fc8946939630b11b371ea8ae39ccdc3056e98f5cc3f6003600060149054906101000a900460ff16604051610fa9929190611dba565b60405180910390a150565b610fbc611267565b600580811115610fcf57610fce6114f7565b5b600060149054906101000a900460ff166005811115610ff157610ff06114f7565b5b14611031576040517f08c379a000000000000000000000000000000000000000000000000000000000815260040161102890611f2d565b60405180910390fd5b60008060146101000a81548160ff02191690836005811115611056576110556114f7565b5b02179055507f0a97a4ee45751e2abf3e4fc8946939630b11b371ea8ae39ccdc3056e98f5cc3f6005600060149054906101000a900460ff1660405161109c929190611dba565b60405180910390a1565b6110ae611267565b60038060058111156110c3576110c26114f7565b5b600060149054906101000a900460ff1660058111156110e5576110e46114f7565b5b14611125576040517f08c379a000000000000000000000000000000000000000000000000000000000815260040161111c906118e1565b60405180910390fd5b60006003805490501161116d576040517f08c379a000000000000000000000000000000000000000000000000000000000815260040161116490611e9b565b60405180910390fd5b6004600060146101000a81548160ff02191690836005811115611193576111926114f7565b5b02179055507f0a97a4ee45751e2abf3e4fc8946939630b11b371ea8ae39ccdc3056e98f5cc3f6003600060149054906101000a900460ff166040516111d9929190611dba565b60405180910390a150565b6111ec611267565b600073ffffffffffffffffffffffffffffffffffffffff168173ffffffffffffffffffffffffffffffffffffffff160361125b576040517f08c379a000000000000000000000000000000000000000000000000000000000815260040161125290611fbf565b60405180910390fd5b611264816112e5565b50565b61126f6113a9565b73ffffffffffffffffffffffffffffffffffffffff1661128d610c8c565b73ffffffffffffffffffffffffffffffffffffffff16146112e3576040517f08c379a00000000000000000000000000000000000000000000000000000000081526004016112da9061202b565b60405180910390fd5b565b60008060009054906101000a900473ffffffffffffffffffffffffffffffffffffffff169050816000806101000a81548173ffffffffffffffffffffffffffffffffffffffff021916908373ffffffffffffffffffffffffffffffffffffffff1602179055508173ffffffffffffffffffffffffffffffffffffffff168173ffffffffffffffffffffffffffffffffffffffff167f8be0079c531659141344cd1fd0a4f28419497f9722a3daafe3b4186f6b6457e060405160405180910390a35050565b600033905090565b6000604051905090565b600080fd5b600080fd5b6000819050919050565b6113d8816113c5565b81146113e357600080fd5b50565b6000813590506113f5816113cf565b92915050565b600060208284031215611411576114106113bb565b5b600061141f848285016113e6565b91505092915050565b600081519050919050565b600082825260208201905092915050565b60005b83811015611462578082015181840152602081019050611447565b60008484015250505050565b6000601f19601f8301169050919050565b600061148a82611428565b6114948185611433565b93506114a4818560208601611444565b6114ad8161146e565b840191505092915050565b6114c1816113c5565b82525050565b600060408201905081810360008301526114e1818561147f565b90506114f060208301846114b8565b9392505050565b7f4e487b7100000000000000000000000000000000000000000000000000000000600052602160045260246000fd5b60068110611537576115366114f7565b5b50565b600081905061154882611526565b919050565b60006115588261153a565b9050919050565b6115688161154d565b82525050565b6000602082019050611583600083018461155f565b92915050565b600080fd5b600080fd5b7f4e487b7100000000000000000000000000000000000000000000000000000000600052604160045260246000fd5b6115cb8261146e565b810181811067ffffffffffffffff821117156115ea576115e9611593565b5b80604052505050565b60006115fd6113b1565b905061160982826115c2565b919050565b600067ffffffffffffffff82111561162957611628611593565b5b6116328261146e565b9050602081019050919050565b82818337600083830152505050565b600061166161165c8461160e565b6115f3565b90508281526020810184848401111561167d5761167c61158e565b5b61168884828561163f565b509392505050565b600082601f8301126116a5576116a4611589565b5b81356116b584826020860161164e565b91505092915050565b6000602082840312156116d4576116d36113bb565b5b600082013567ffffffffffffffff8111156116f2576116f16113c0565b5b6116fe84828501611690565b91505092915050565b600073ffffffffffffffffffffffffffffffffffffffff82169050919050565b600061173282611707565b9050919050565b61174281611727565b811461174d57600080fd5b50565b60008135905061175f81611739565b92915050565b60006020828403121561177b5761177a6113bb565b5b600061178984828501611750565b91505092915050565b61179b81611727565b82525050565b60006020820190506117b66000830184611792565b92915050565b60006020820190506117d160008301846114b8565b92915050565b60008115159050919050565b6117ec816117d7565b82525050565b600060608201905061180760008301866117e3565b61181460208301856117e3565b61182160408301846114b8565b949350505050565b7f596f7520617265206e6f74205265676973746572656400000000000000000000600082015250565b600061185f601683611433565b915061186a82611829565b602082019050919050565b6000602082019050818103600083015261188e81611852565b9050919050565b7f496e76616c696420776f726b666c6f77207374617475732e0000000000000000600082015250565b60006118cb601883611433565b91506118d682611895565b602082019050919050565b600060208201905081810360008301526118fa816118be565b9050919050565b7f596f75206861766520616c726561647920766f7465642e000000000000000000600082015250565b6000611937601783611433565b915061194282611901565b602082019050919050565b600060208201905081810360008301526119668161192a565b9050919050565b7f496e76616c69642070726f706f73616c2049442e000000000000000000000000600082015250565b60006119a3601483611433565b91506119ae8261196d565b602082019050919050565b600060208201905081810360008301526119d281611996565b9050919050565b7f4e487b7100000000000000000000000000000000000000000000000000000000600052603260045260246000fd5b7f4e487b7100000000000000000000000000000000000000000000000000000000600052601160045260246000fd5b6000611a42826113c5565b91507fffffffffffffffffffffffffffffffffffffffffffffffffffffffffffffffff8203611a7457611a73611a08565b5b600182019050919050565b6000604082019050611a946000830185611792565b611aa160208301846114b8565b9392505050565b7f4e487b7100000000000000000000000000000000000000000000000000000000600052602260045260246000fd5b60006002820490506001821680611aef57607f821691505b602082108103611b0257611b01611aa8565b5b50919050565b60008190508160005260206000209050919050565b60006020601f8301049050919050565b600082821b905092915050565b600060088302611b6a7fffffffffffffffffffffffffffffffffffffffffffffffffffffffffffffffff82611b2d565b611b748683611b2d565b95508019841693508086168417925050509392505050565b6000819050919050565b6000611bb1611bac611ba7846113c5565b611b8c565b6113c5565b9050919050565b6000819050919050565b611bcb83611b96565b611bdf611bd782611bb8565b848454611b3a565b825550505050565b600090565b611bf4611be7565b611bff818484611bc2565b505050565b5b81811015611c2357611c18600082611bec565b600181019050611c05565b5050565b601f821115611c6857611c3981611b08565b611c4284611b1d565b81016020851015611c51578190505b611c65611c5d85611b1d565b830182611c04565b50505b505050565b600082821c905092915050565b6000611c8b60001984600802611c6d565b1980831691505092915050565b6000611ca48383611c7a565b9150826002028217905092915050565b611cbd82611428565b67ffffffffffffffff811115611cd657611cd5611593565b5b611ce08254611ad7565b611ceb828285611c27565b600060209050601f831160018114611d1e5760008415611d0c578287015190505b611d168582611c98565b865550611d7e565b601f198416611d2c86611b08565b60005b82811015611d5457848901518255600182019150602085019450602081019050611d2f565b86831015611d715784890151611d6d601f891682611c7a565b8355505b6001600288020188555050505b505050505050565b6000611d91826113c5565b9150611d9c836113c5565b9250828203905081811115611db457611db3611a08565b5b92915050565b6000604082019050611dcf600083018561155f565b611ddc602083018461155f565b9392505050565b7f566f74657220697320616c726561647920726567697374657265642e00000000600082015250565b6000611e19601c83611433565b9150611e2482611de3565b602082019050919050565b60006020820190508181036000830152611e4881611e0c565b9050919050565b7f4e6f2070726f706f73616c2077617320726567697374657265642e0000000000600082015250565b6000611e85601b83611433565b9150611e9082611e4f565b602082019050919050565b60006020820190508181036000830152611eb481611e78565b9050919050565b7f566f74696e672073657373696f6e20686173206e6f7420656e6465642079657460008201527f2e00000000000000000000000000000000000000000000000000000000000000602082015250565b6000611f17602183611433565b9150611f2282611ebb565b604082019050919050565b60006020820190508181036000830152611f4681611f0a565b9050919050565b7f4f776e61626c653a206e6577206f776e657220697320746865207a65726f206160008201527f6464726573730000000000000000000000000000000000000000000000000000602082015250565b6000611fa9602683611433565b9150611fb482611f4d565b604082019050919050565b60006020820190508181036000830152611fd881611f9c565b9050919050565b7f4f776e61626c653a2063616c6c6572206973206e6f7420746865206f776e6572600082015250565b6000612015602083611433565b915061202082611fdf565b602082019050919050565b6000602082019050818103600083015261204481612008565b905091905056fea2646970667358221220f2ec9d3874e339d1976dc9ee2c4338792cccd798a800c3c9c615f820108a463f64736f6c63430008120033",
  "immutableReferences": {},
  "source": "pragma solidity ^0.8.18;\r\nimport \"@openzeppelin/contracts/access/Ownable.sol\";\r\n\r\ncontract Voting is Ownable {\r\n    enum WorkflowStatus {\r\n        RegisteringVoters,\r\n        ProposalsRegistrationStarted,\r\n        ProposalsRegistrationEnded,\r\n        VotingSessionStarted,\r\n        VotingSessionEnded,\r\n        VotesTallied\r\n    }\r\n    struct Voter {\r\n        bool isRegistered;\r\n        bool hasVoted;\r\n        uint votedProposalId;\r\n    }\r\n    struct Proposal {\r\n        string description;\r\n        uint voteCount;\r\n    }\r\n    WorkflowStatus public status;\r\n    uint winningProposalId;\r\n    mapping(address => Voter) public voters;\r\n    Proposal[] public proposals;\r\n    uint public networkId;\r\n\r\n    modifier onlyRegisteredVoter() {\r\n        require(voters[msg.sender].isRegistered, \"You are not Registered\");\r\n        _;\r\n    }\r\n    modifier onlyDuringStatus(WorkflowStatus _status){\r\n        require(status == _status,  \"Invalid workflow status.\");\r\n        _;\r\n    }\r\n\r\n    constructor(uint _networkId){\r\n        networkId = _networkId;\r\n    }\r\n\r\n    function startRegisteringVoters() public onlyOwner {\r\n        require(status == WorkflowStatus.VotesTallied, \"Voting session has not ended yet.\");\r\n        status = WorkflowStatus.RegisteringVoters;\r\n        emit WorkflowStatusChange(WorkflowStatus.VotesTallied, status);\r\n    }\r\n\r\n    function registerVoter(address _voter) public onlyOwner onlyDuringStatus(WorkflowStatus.RegisteringVoters) {\r\n        require(!voters[_voter].isRegistered, \"Voter is already registered.\");\r\n        voters[_voter].isRegistered = true;\r\n        emit VoterRegistered(_voter);\r\n    }\r\n\r\n    function endRegisteringVoters() public onlyOwner onlyDuringStatus(WorkflowStatus.RegisteringVoters) {\r\n        status = WorkflowStatus.ProposalsRegistrationStarted;\r\n        emit WorkflowStatusChange(WorkflowStatus.RegisteringVoters, status);\r\n    }\r\n    function registerProposal(string memory _description) public onlyRegisteredVoter onlyDuringStatus(WorkflowStatus.ProposalsRegistrationStarted) {\r\n        proposals.push(Proposal({description: _description, voteCount: 0}));\r\n        emit ProposalRegistered(proposals.length - 1);\r\n    }\r\n\r\n    function endProposalsRegistration() public onlyOwner onlyDuringStatus(WorkflowStatus.ProposalsRegistrationEnded) {\r\n        require(proposals.length > 0, \"No proposal was registered.\");\r\n        status = WorkflowStatus.VotingSessionStarted;\r\n        emit WorkflowStatusChange(WorkflowStatus.ProposalsRegistrationEnded, status);\r\n    }\r\n\r\n    function startVotingSession() public onlyOwner onlyDuringStatus(WorkflowStatus.VotingSessionStarted) {\r\n        require(proposals.length > 0, \"No proposal was registered.\");\r\n        status = WorkflowStatus.VotingSessionEnded;\r\n        emit WorkflowStatusChange(WorkflowStatus.VotingSessionStarted, status);\r\n    }\r\n\r\n    function vote(uint _proposalId) public onlyRegisteredVoter onlyDuringStatus(WorkflowStatus.VotingSessionStarted) {\r\n        require(!voters[msg.sender].hasVoted, \"You have already voted.\");\r\n        require(_proposalId < proposals.length, \"Invalid proposal ID.\");\r\n        voters[msg.sender].hasVoted = true;\r\n        voters[msg.sender].votedProposalId = _proposalId;\r\n        proposals[_proposalId].voteCount++;\r\n        emit Voted(msg.sender, _proposalId);\r\n    }\r\n\r\n    function endVotingSession() public onlyOwner onlyDuringStatus(WorkflowStatus.VotingSessionStarted) {\r\n        status = WorkflowStatus.VotingSessionEnded;\r\n        emit WorkflowStatusChange(WorkflowStatus.VotingSessionStarted, status);\r\n    }\r\n\r\n    function tallyVotes() public onlyOwner onlyDuringStatus(WorkflowStatus.VotingSessionEnded) {\r\n        uint winningVoteCount = 0;\r\n        for (uint i = 0; i < proposals.length; i++) {\r\n            if (proposals[i].voteCount > winningVoteCount) {\r\n                winningVoteCount = proposals[i].voteCount;\r\n                winningProposalId = i;\r\n            }\r\n        }\r\n        status = WorkflowStatus.VotesTallied;\r\n        emit WorkflowStatusChange(WorkflowStatus.VotingSessionEnded, status);\r\n    }\r\n\r\n    function getWinner() public view onlyDuringStatus(WorkflowStatus.VotesTallied) returns (uint) {\r\n        require(proposals.length > 0, \"No proposal was registered.\");\r\n        return winningProposalId;\r\n    }\r\n    event VoterRegistered(address voterAddress);\r\n    event WorkflowStatusChange(WorkflowStatus previousStatus, WorkflowStatus newStatus);\r\n    event ProposalRegistered(uint proposalId);\r\n    event Voted (address voter, uint proposalId);\r\n}",
  "sourcePath": "C:\\Users\\alexi\\imt\\IMT_crypto\\app\\truffle\\contracts\\Voting.sol",
  "compiler": {
    "name": "solc",
    "version": "0.8.18+commit.87f61d96.Emscripten.clang"
  },
  "schemaVersion": "3.4.13",
  "updatedAt": "2023-05-05T12:04:49.652Z",
  "networkType": "ethereum",
  "devdoc": {
    "kind": "dev",
    "methods": {
      "owner()": {
        "details": "Returns the address of the current owner."
      },
      "renounceOwnership()": {
        "details": "Leaves the contract without owner. It will not be possible to call `onlyOwner` functions anymore. Can only be called by the current owner. NOTE: Renouncing ownership will leave the contract without an owner, thereby removing any functionality that is only available to the owner."
      },
      "transferOwnership(address)": {
        "details": "Transfers ownership of the contract to a new account (`newOwner`). Can only be called by the current owner."
      }
    },
    "version": 1
  },
  "userdoc": {
    "kind": "user",
    "methods": {},
    "version": 1
  }
}